:100000000C9454000C9400000C9400000C9400001C
:100010000C9400000C94AC010C9400000C9483012F
:100020000C9400000C9400000C9400000C94000050
:100030000C9400000C9400000C9400000C94000040
:100040000C9400000C9400000C9400000C94000030
:100050000C9400000C9400000C9400000C94000020
:100060000C9400000C9400000C9400000C94000010
:100070000C9400000C9400000C9400000C94000000
:100080000C9400000C9400000C9400003F065B4FA1
:10009000666D7D077F6F010000000100100596006E
:1000A0000100050098000000F894EE27ECBBF1E099
:1000B000F5BFE5BFE0936C00F8E1F1BDE1BD8DE077
:1000C000A2E0BB27ED938A95E9F780E090E1A0E0FC
:1000D000B1E0ED930197E9F7EAE9F0E085919591B8
:1000E000009761F0A591B59105901590BF01F001C1
:1000F00005900D920197E1F7FB01F0CFEFEFEDBF17
:10010000E0E1EEBFC0E0D5E00C9486004AD1A0E06B
:10011000B0E00E94D104DF01E4E6F0E00E946D044B
:10012000A8E0B5E090D1A0E0B0E00E94D104DF01EA
:100130008FD0A0E08599A1E0A03029F0A0E08499BB
:10014000A1E0A030C1F4E1E05E2EA0E08599A1E03D
:10015000A03029F0A0E08499A1E0A03019F47AD170
:1001600037D0F3CFA0E0B0E080E090E09DD0552400
:10017000A4E68BD18DD1A0E08099A1E0A03029F038
:10018000A0E08199A1E0A030F9F4F894809902C030
:10019000979801C0979AA0E08099A1E0A03029F03B
:1001A000A0E08199A1E0A03069F4869905C0A0E0A3
:1001B000B2E080E090E004C0A0E0B1E080E090E038
:1001C00073D0E9CF65D1789403D044D1B2CFFFCFBB
:1001D000E0911005E03051F0A0E0B0E00E94D104C1
:1001E000ACE0B5E030D1E0E0E0931005829916C0B4
:1001F00061D1A0E0B0E080E291E40E94630363D1AA
:100200006BD1E0E0F0EC69E774E40E94F80309F0D8
:1002100010F40C940C0157D168D17DD1839917C08B
:1002200049D1A0E0B0E080E291E40E945C034BD1B0
:10023000A0910F05AA234AF4E0E0E0930C05E093B7
:100240000D05E0930E05E0930F054FD164D108959D
:10025000BA93AA93A881B981EAE0F0E00E947204FF
:10026000E457FF4F049005BAA881B981E4E6F0E0B5
:100270000E947204DF01EAE0F0E00E946D04E4579E
:10028000FF4F049008BAA881B981E8EEF3E00E941C
:100290007204DF01E4E6F0E00E946D04E457FF4FD2
:1002A00004900BBA229608950E94BF043CD10E948C
:1002B000FA040CF49798AB81AA2352F4979A0E94FF
:1002C000B004AFEFBFEF8FEF9FEF0E9455042ED128
:1002D0002AD1AD32E1E0BE07E0E08E07E0E09E0704
:1002E0002CF0ECE2F1E060E070E020D1E881E093F6
:1002F000620019D1E8E00E94240418D1E881E0935B
:100300006500249608950A921A926A937A938A93C2
:100310009A93AA93BA93EA93FA93EFB7EA93552084
:1003200071F0849904C005D10E94630319D18599A5
:1003300006C0FFD00E94C4040E945C0311D1E99161
:10034000EFBFF991E991B991A99199918991799129
:1003500069911990099018956A937A93AA93BA9320
:10036000EA93FA93EFB7EA930D9909C0A4E0B5E0D8
:100370000E94A104EF5FFF4F6F4F7F4F07C0A4E0C3
:10038000B5E00E94A1043197604070400E94AB0428
:10039000E991EFBFF991E991B991A99179916991A9
:1003A0001895E0E0EBBBEFE7EABBE0E0E8BBEFE786
:1003B000E7BBE0E0E5BBEFE7E4BBE2BBE0E8E1BBC5
:1003C000EFEFE3B9E0E0E2B9E0936200EFEFE09332
:1003D0006100E0E0E0936500E3E0E0936400E0E0CA
:1003E000EFBDEEBDEDBDECBDE7BDE6BDEBBDEABDCD
:1003F000E9BDE8BDE0937900E0937800E0938B00DD
:10040000E0938A00E0938900E0938800E093810004
:10041000E0938000E0938700E0938600E0938500FE
:10042000E0938400E0938300E0938200E0936A000D
:10043000E3E3EABFE0E5E9BFE8BFE0E0E7BFE09360
:100440007D00789408950E9430040E9429030E9440
:10045000A6040895E0910405F09105056091060554
:1004600070910705A0910005B091010580910205EA
:10047000909103050E9429030E94C4040E945C031A
:100480000E94F202DF01CB010FCFB0E00C94B90261
:10049000E0E0E0930405E0930505E0930605E093B2
:1004A0000705E0930005E0930105E0930205E09362
:1004B00003050895E0910C05F0910D0560910E057E
:1004C00070910F050895E0930C05F0930D0560936E
:1004D0000E0570930F050895A0910C05B0910D05C0
:1004E00080910E0590910F050895F6DFE0E0F0E0B1
:1004F00068EC72E40E94B303E0930805F0930905E9
:1005000060930A0570930B05D5DF0E94F202DF01AC
:100510009FDEA8ECBACFCEDFA0E0B0E00E94F202EE
:100520000E94E10408950E94B50408950E94BA044F
:100530000895A0910805B091090580910A05909150
:100540000B05E0E0F0E060E270E40E94B303A091EC
:100550000005B09101058091020590910305089571
:10056000E0930005F0930105609302057093030585
:100570000895109639F080EA9FE00197F1F7A89569
:100580001197C9F70895552342F4503811F4E0FF4C
:1005900004C03196691F791F6BF050E8572711F49A
:1005A0005F93CFC05F3F31F0660F000C57956795A2
:1005B000752F08955F9300200AF0CFC0C8C050E89F
:1005C000192E1522880F991F9527550F879550E8EA
:1005D000072E0522660F771F7527550F679508951B
:1005E000689401C0E8945F93F2DF703818F07F3FA1
:1005F00008F4A7C056E1571BAAF4519558300EF4E1
:10060000593030F0EFEFFFEF6FEF7FE777F91AC067
:1006100077275523B9F0EE0FFF1F661F771F5A95F6
:10062000D1F710C07727583028F0EF2FF62F672F1B
:100630005850F9CF552331F076956795F795E795A2
:100640005A95D1F700200AF4F7D05F910895689485
:1006500001C0E894309760407040B1F0002426F06B
:10066000772312F40094E8D0172E7EE1112032F0A7
:100670007A95EE0FFF1F661F111CF9CFEF2FF62F93
:10068000612D5F938ADF5F9108954F93AF01FD0164
:10069000DA01AB01BC01CA01402D012C142E4F918F
:1006A0000895EA0FFB1F681F0895E095F095609587
:1006B000EF5FFF4F6F4F08955F9381DF903871F1C7
:1006C00050E8152604C05F937ADF903839F170380E
:1006D00021F1572F591B2BF112F4D7DFFACF5831E4
:1006E00018F0AA27BB278827583028F0AB2FB82F3F
:1006F00088275850F9CF552329F08695B795A795A7
:100700005A95D9F7502D512572F0CBDF38F4679503
:10071000F795E795739513F420C0B7DF3EDF5F913F
:100720000895D8F7FBCFEA1BFB0B680B51F010F4D0
:100730000094BBDF662392F3EE0FFF1F661F7A95CE
:10074000CBF7EE27FF27662777275F910895EFEF16
:10075000FFEF6FE77FEF5F910895EFEFFFEF6FE738
:100760007FE75F9108955F932ADF703821F41120AD
:100770000AF4EDCFF2CF903809F4E3CF01240894C6
:10078000970B1BF4D4F30020F3CF792F1F932F93F3
:100790003F934F93112411272227332744275527AE
:1007A00090E2AE17BF078607410730F0AE1BBF0BC4
:1007B000860B410B089401C08894551F221F331FDC
:1007C000111CAA1FBB1F881F441F9A9551F7F901DE
:1007D000612D4F913F912F911F91662332F0550F5C
:1007E000EE1FFF1F661F7A9543F2CDDE5F910895DD
:1007F00099239AF0772342F0971748F029F4AE171F
:10080000BF07860720F031F0989488940895989453
:10081000089408951894889408957723C2F7971739
:1008200098F3A9F7EA17FB07680788F399F3ECCF69
:10083000F195E195F0400895F09560957095E195FA
:10084000FF4F6F4F7F4F0895EE230E2EFD01BC0129
:1008500031F075956795F795E7950A94D1F7089566
:100860006F2F660F660B762F08957A9F702D6B9F02
:10087000700DF89F700DE99F700D6A9F602D710DCE
:10088000FB9F600D711DE89F600D711D8827FA9F09
:10089000F02D610D781FEB9FF00D611D781FEA9F11
:1008A000E02DF10D681F781F089538D0DEDF0EF4BB
:1008B000C3DF08950024112490E1AA0FBB1F001C80
:1008C000111C0E1A1F0A18F40E0E1F1E01C0A16083
:1008D0009A9599F7FD01D001089512D0EBDF0EF43F
:1008E000A7DF0895E894B7FF04C0A095B0951196CE
:1008F0006894F7FD9DDFDEDFFD010EF499DF0895BA
:10090000E894F7FF02C094DF6894B7FF06C0A09593
:10091000B095119600F8039400FA0895E89477FFD3
:1009200002C08ADF689497FF0BC00024A095B095A1
:10093000809590951196801D901D00F8039400FA03
:100940000895ED91FD916D917D910895ED93FD9345
:100950006D937C9308957E936E93FE93EE9308952A
:10096000E881F9816A817B810895A881B9818A81B2
:100970009B810895E883F9836A837B8308959A9322
:100980008A93BA93AA930895182E862F612D192E53
:10099000972F712D1B2EBF2FF12D1A2EAE2FE12D6B
:1009A0000895119602D0FE2F1197E199FECFFF9383
:1009B000FFB7F894AEBBBFBBE09AEDB3FFBFFF91AA
:1009C000089507D01196EF93EF2F03D0EF91119771
:1009D0000895E19B02C0A895FCCF9FB7F894AEBBE9
:1009E000BFBBE09A8DB3E81719F0EDBBE29AE19A2C
:1009F0009FBF089500240A160B06080609060895ED
:00000001FF
